{
  "_format": "hh-sol-artifact-1",
  "contractName": "MindMasteryNFT",
  "sourceName": "contracts/MindMasteryNFT.sol",
  "abi": [
    {
      "inputs": [],
      "stateMutability": "nonpayable",
      "type": "constructor"
    },
    {
      "anonymous": false,
      "inputs": [
        {
          "indexed": true,
          "internalType": "address",
          "name": "owner",
          "type": "address"
        },
        {
          "indexed": true,
          "internalType": "address",
          "name": "approved",
          "type": "address"
        },
        {
          "indexed": true,
          "internalType": "uint256",
          "name": "tokenId",
          "type": "uint256"
        }
      ],
      "name": "Approval",
      "type": "event"
    },
    {
      "anonymous": false,
      "inputs": [
        {
          "indexed": true,
          "internalType": "address",
          "name": "owner",
          "type": "address"
        },
        {
          "indexed": true,
          "internalType": "address",
          "name": "operator",
          "type": "address"
        },
        {
          "indexed": false,
          "internalType": "bool",
          "name": "approved",
          "type": "bool"
        }
      ],
      "name": "ApprovalForAll",
      "type": "event"
    },
    {
      "anonymous": false,
      "inputs": [
        {
          "indexed": false,
          "internalType": "uint256",
          "name": "_fromTokenId",
          "type": "uint256"
        },
        {
          "indexed": false,
          "internalType": "uint256",
          "name": "_toTokenId",
          "type": "uint256"
        }
      ],
      "name": "BatchMetadataUpdate",
      "type": "event"
    },
    {
      "anonymous": false,
      "inputs": [
        {
          "indexed": false,
          "internalType": "uint256",
          "name": "_tokenId",
          "type": "uint256"
        }
      ],
      "name": "MetadataUpdate",
      "type": "event"
    },
    {
      "anonymous": false,
      "inputs": [
        {
          "indexed": true,
          "internalType": "address",
          "name": "to",
          "type": "address"
        },
        {
          "indexed": false,
          "internalType": "uint256",
          "name": "tokenId",
          "type": "uint256"
        },
        {
          "indexed": false,
          "internalType": "string",
          "name": "tokenURI",
          "type": "string"
        },
        {
          "indexed": false,
          "internalType": "string",
          "name": "level",
          "type": "string"
        }
      ],
      "name": "NFTMinted",
      "type": "event"
    },
    {
      "anonymous": false,
      "inputs": [
        {
          "indexed": true,
          "internalType": "address",
          "name": "previousOwner",
          "type": "address"
        },
        {
          "indexed": true,
          "internalType": "address",
          "name": "newOwner",
          "type": "address"
        }
      ],
      "name": "OwnershipTransferred",
      "type": "event"
    },
    {
      "anonymous": false,
      "inputs": [
        {
          "indexed": true,
          "internalType": "address",
          "name": "from",
          "type": "address"
        },
        {
          "indexed": true,
          "internalType": "address",
          "name": "to",
          "type": "address"
        },
        {
          "indexed": true,
          "internalType": "uint256",
          "name": "tokenId",
          "type": "uint256"
        }
      ],
      "name": "Transfer",
      "type": "event"
    },
    {
      "inputs": [
        {
          "internalType": "address",
          "name": "to",
          "type": "address"
        },
        {
          "internalType": "uint256",
          "name": "tokenId",
          "type": "uint256"
        }
      ],
      "name": "approve",
      "outputs": [],
      "stateMutability": "nonpayable",
      "type": "function"
    },
    {
      "inputs": [
        {
          "internalType": "address",
          "name": "owner",
          "type": "address"
        }
      ],
      "name": "balanceOf",
      "outputs": [
        {
          "internalType": "uint256",
          "name": "",
          "type": "uint256"
        }
      ],
      "stateMutability": "view",
      "type": "function"
    },
    {
      "inputs": [
        {
          "internalType": "uint256",
          "name": "tokenId",
          "type": "uint256"
        }
      ],
      "name": "getApproved",
      "outputs": [
        {
          "internalType": "address",
          "name": "",
          "type": "address"
        }
      ],
      "stateMutability": "view",
      "type": "function"
    },
    {
      "inputs": [
        {
          "internalType": "uint256",
          "name": "tokenId",
          "type": "uint256"
        }
      ],
      "name": "getNFTLevel",
      "outputs": [
        {
          "internalType": "string",
          "name": "",
          "type": "string"
        }
      ],
      "stateMutability": "view",
      "type": "function"
    },
    {
      "inputs": [
        {
          "internalType": "address",
          "name": "owner",
          "type": "address"
        },
        {
          "internalType": "address",
          "name": "operator",
          "type": "address"
        }
      ],
      "name": "isApprovedForAll",
      "outputs": [
        {
          "internalType": "bool",
          "name": "",
          "type": "bool"
        }
      ],
      "stateMutability": "view",
      "type": "function"
    },
    {
      "inputs": [
        {
          "internalType": "uint256",
          "name": "",
          "type": "uint256"
        }
      ],
      "name": "levelByTokenId",
      "outputs": [
        {
          "internalType": "string",
          "name": "",
          "type": "string"
        }
      ],
      "stateMutability": "view",
      "type": "function"
    },
    {
      "inputs": [
        {
          "internalType": "address",
          "name": "to",
          "type": "address"
        },
        {
          "internalType": "string",
          "name": "tokenURI",
          "type": "string"
        },
        {
          "internalType": "string",
          "name": "level",
          "type": "string"
        }
      ],
      "name": "mintNFT",
      "outputs": [],
      "stateMutability": "nonpayable",
      "type": "function"
    },
    {
      "inputs": [],
      "name": "name",
      "outputs": [
        {
          "internalType": "string",
          "name": "",
          "type": "string"
        }
      ],
      "stateMutability": "view",
      "type": "function"
    },
    {
      "inputs": [],
      "name": "nextTokenId",
      "outputs": [
        {
          "internalType": "uint256",
          "name": "",
          "type": "uint256"
        }
      ],
      "stateMutability": "view",
      "type": "function"
    },
    {
      "inputs": [],
      "name": "owner",
      "outputs": [
        {
          "internalType": "address",
          "name": "",
          "type": "address"
        }
      ],
      "stateMutability": "view",
      "type": "function"
    },
    {
      "inputs": [
        {
          "internalType": "uint256",
          "name": "tokenId",
          "type": "uint256"
        }
      ],
      "name": "ownerOf",
      "outputs": [
        {
          "internalType": "address",
          "name": "",
          "type": "address"
        }
      ],
      "stateMutability": "view",
      "type": "function"
    },
    {
      "inputs": [],
      "name": "renounceOwnership",
      "outputs": [],
      "stateMutability": "nonpayable",
      "type": "function"
    },
    {
      "inputs": [
        {
          "internalType": "address",
          "name": "from",
          "type": "address"
        },
        {
          "internalType": "address",
          "name": "to",
          "type": "address"
        },
        {
          "internalType": "uint256",
          "name": "tokenId",
          "type": "uint256"
        }
      ],
      "name": "safeTransferFrom",
      "outputs": [],
      "stateMutability": "nonpayable",
      "type": "function"
    },
    {
      "inputs": [
        {
          "internalType": "address",
          "name": "from",
          "type": "address"
        },
        {
          "internalType": "address",
          "name": "to",
          "type": "address"
        },
        {
          "internalType": "uint256",
          "name": "tokenId",
          "type": "uint256"
        },
        {
          "internalType": "bytes",
          "name": "data",
          "type": "bytes"
        }
      ],
      "name": "safeTransferFrom",
      "outputs": [],
      "stateMutability": "nonpayable",
      "type": "function"
    },
    {
      "inputs": [
        {
          "internalType": "address",
          "name": "operator",
          "type": "address"
        },
        {
          "internalType": "bool",
          "name": "approved",
          "type": "bool"
        }
      ],
      "name": "setApprovalForAll",
      "outputs": [],
      "stateMutability": "nonpayable",
      "type": "function"
    },
    {
      "inputs": [
        {
          "internalType": "bytes4",
          "name": "interfaceId",
          "type": "bytes4"
        }
      ],
      "name": "supportsInterface",
      "outputs": [
        {
          "internalType": "bool",
          "name": "",
          "type": "bool"
        }
      ],
      "stateMutability": "view",
      "type": "function"
    },
    {
      "inputs": [],
      "name": "symbol",
      "outputs": [
        {
          "internalType": "string",
          "name": "",
          "type": "string"
        }
      ],
      "stateMutability": "view",
      "type": "function"
    },
    {
      "inputs": [
        {
          "internalType": "uint256",
          "name": "tokenId",
          "type": "uint256"
        }
      ],
      "name": "tokenURI",
      "outputs": [
        {
          "internalType": "string",
          "name": "",
          "type": "string"
        }
      ],
      "stateMutability": "view",
      "type": "function"
    },
    {
      "inputs": [
        {
          "internalType": "address",
          "name": "from",
          "type": "address"
        },
        {
          "internalType": "address",
          "name": "to",
          "type": "address"
        },
        {
          "internalType": "uint256",
          "name": "tokenId",
          "type": "uint256"
        }
      ],
      "name": "transferFrom",
      "outputs": [],
      "stateMutability": "nonpayable",
      "type": "function"
    },
    {
      "inputs": [
        {
          "internalType": "address",
          "name": "newOwner",
          "type": "address"
        }
      ],
      "name": "transferOwnership",
      "outputs": [],
      "stateMutability": "nonpayable",
      "type": "function"
    }
  ],
  "bytecode": "0x608060405234801561001057600080fd5b506040518060400160405280600e81526020016d135a5b9913585cdd195c9e53919560921b81525060405180604001604052806005815260200164135353919560da1b81525081600090816100659190610185565b5060016100728282610185565b50505061008b61008661009060201b60201c565b610094565b610243565b3390565b600780546001600160a01b038381166001600160a01b0319831681179093556040519116919082907f8be0079c531659141344cd1fd0a4f28419497f9722a3daafe3b4186f6b6457e090600090a35050565b634e487b7160e01b600052604160045260246000fd5b600181811c9082168061011057607f821691505b60208210810361013057634e487b7160e01b600052602260045260246000fd5b50919050565b601f82111561018057806000526020600020601f840160051c8101602085101561015d5750805b601f840160051c820191505b8181101561017d5760008155600101610169565b50505b505050565b81516001600160401b0381111561019e5761019e6100e6565b6101b2816101ac84546100fc565b84610136565b6020601f8211600181146101e657600083156101ce5750848201515b600019600385901b1c1916600184901b17845561017d565b600084815260208120601f198516915b8281101561021657878501518255602094850194600190920191016101f6565b50848210156102345786840151600019600387901b60f8161c191681555b50505050600190811b01905550565b611ac4806102526000396000f3fe608060405234801561001057600080fd5b506004361061012c5760003560e01c806375794a3c116100ad578063a3ee38ae11610071578063a3ee38ae1461026b578063b88d4fde1461027e578063c87b56dd14610291578063e985e9c5146102a4578063f2fde38b146102e057600080fd5b806375794a3c14610223578063870d14b51461022c5780638da5cb5b1461023f57806395d89b4114610250578063a22cb4651461025857600080fd5b806323b872dd116100f457806323b872dd146101c157806342842e0e146101d45780636352211e146101e757806370a08231146101fa578063715018a61461021b57600080fd5b806301ffc9a71461013157806306fdde0314610159578063080e035d1461016e578063081812fc14610181578063095ea7b3146101ac575b600080fd5b61014461013f36600461143d565b6102f3565b60405190151581526020015b60405180910390f35b61016161031e565b60405161015091906114aa565b61016161017c3660046114bd565b6103b0565b61019461018f3660046114bd565b610460565b6040516001600160a01b039091168152602001610150565b6101bf6101ba3660046114f2565b610487565b005b6101bf6101cf36600461151c565b6105a1565b6101bf6101e236600461151c565b6105d2565b6101946101f53660046114bd565b6105ed565b61020d610208366004611559565b61064d565b604051908152602001610150565b6101bf6106d3565b61020d60085481565b61016161023a3660046114bd565b6106e7565b6007546001600160a01b0316610194565b610161610781565b6101bf610266366004611574565b610790565b6101bf610279366004611660565b61079f565b6101bf61028c3660046116d9565b610837565b61016161029f3660046114bd565b61086f565b6101446102b2366004611755565b6001600160a01b03918216600090815260056020908152604080832093909416825291909152205460ff1690565b6101bf6102ee366004611559565b61097f565b60006001600160e01b03198216632483248360e11b14806103185750610318826109f8565b92915050565b60606000805461032d90611788565b80601f016020809104026020016040519081016040528092919081815260200182805461035990611788565b80156103a65780601f1061037b576101008083540402835291602001916103a6565b820191906000526020600020905b81548152906001019060200180831161038957829003601f168201915b5050505050905090565b606060006103bd836105ed565b60008481526009602052604090208054919250906103da90611788565b80601f016020809104026020016040519081016040528092919081815260200182805461040690611788565b80156104535780601f1061042857610100808354040283529160200191610453565b820191906000526020600020905b81548152906001019060200180831161043657829003601f168201915b5050505050915050919050565b600061046b82610a48565b506000908152600460205260409020546001600160a01b031690565b6000610492826105ed565b9050806001600160a01b0316836001600160a01b0316036105045760405162461bcd60e51b815260206004820152602160248201527f4552433732313a20617070726f76616c20746f2063757272656e74206f776e656044820152603960f91b60648201526084015b60405180910390fd5b336001600160a01b0382161480610520575061052081336102b2565b6105925760405162461bcd60e51b815260206004820152603d60248201527f4552433732313a20617070726f76652063616c6c6572206973206e6f7420746f60448201527f6b656e206f776e6572206f7220617070726f76656420666f7220616c6c00000060648201526084016104fb565b61059c8383610aa7565b505050565b6105ab3382610b15565b6105c75760405162461bcd60e51b81526004016104fb906117c2565b61059c838383610b93565b61059c83838360405180602001604052806000815250610837565b6000818152600260205260408120546001600160a01b0316806103185760405162461bcd60e51b8152602060048201526018602482015277115490cdcc8c4e881a5b9d985b1a59081d1bdad95b88125160421b60448201526064016104fb565b60006001600160a01b0382166106b75760405162461bcd60e51b815260206004820152602960248201527f4552433732313a2061646472657373207a65726f206973206e6f7420612076616044820152683634b21037bbb732b960b91b60648201526084016104fb565b506001600160a01b031660009081526003602052604090205490565b6106db610cf7565b6106e56000610d51565b565b6009602052600090815260409020805461070090611788565b80601f016020809104026020016040519081016040528092919081815260200182805461072c90611788565b80156107795780601f1061074e57610100808354040283529160200191610779565b820191906000526020600020905b81548152906001019060200180831161075c57829003601f168201915b505050505081565b60606001805461032d90611788565b61079b338383610da3565b5050565b6107a7610cf7565b6008546107b48482610e71565b6107be8184610e8b565b60008181526009602052604090206107d6838261185d565b50836001600160a01b03167fe260f93729f4de5d60ff8d8ab8c7e6afc76218c4cc0f6f7e617398e20a358a2d8285856040516108149392919061191c565b60405180910390a26008805490600061082c83611951565b919050555050505050565b6108413383610b15565b61085d5760405162461bcd60e51b81526004016104fb906117c2565b61086984848484610f56565b50505050565b606061087a82610a48565b6000828152600660205260408120805461089390611788565b80601f01602080910402602001604051908101604052809291908181526020018280546108bf90611788565b801561090c5780601f106108e15761010080835404028352916020019161090c565b820191906000526020600020905b8154815290600101906020018083116108ef57829003601f168201915b50505050509050600061092a60408051602081019091526000815290565b9050805160000361093c575092915050565b81511561096e578082604051602001610956929190611978565b60405160208183030381529060405292505050919050565b61097784610f89565b949350505050565b610987610cf7565b6001600160a01b0381166109ec5760405162461bcd60e51b815260206004820152602660248201527f4f776e61626c653a206e6577206f776e657220697320746865207a65726f206160448201526564647265737360d01b60648201526084016104fb565b6109f581610d51565b50565b60006001600160e01b031982166380ac58cd60e01b1480610a2957506001600160e01b03198216635b5e139f60e01b145b8061031857506301ffc9a760e01b6001600160e01b0319831614610318565b6000818152600260205260409020546001600160a01b03166109f55760405162461bcd60e51b8152602060048201526018602482015277115490cdcc8c4e881a5b9d985b1a59081d1bdad95b88125160421b60448201526064016104fb565b600081815260046020526040902080546001600160a01b0319166001600160a01b0384169081179091558190610adc826105ed565b6001600160a01b03167f8c5be1e5ebec7d5bd14f71427d1e84f3dd0314c0f7b2291e5b200ac8c7c3b92560405160405180910390a45050565b600080610b21836105ed565b9050806001600160a01b0316846001600160a01b03161480610b6857506001600160a01b0380821660009081526005602090815260408083209388168352929052205460ff165b806109775750836001600160a01b0316610b8184610460565b6001600160a01b031614949350505050565b826001600160a01b0316610ba6826105ed565b6001600160a01b031614610bcc5760405162461bcd60e51b81526004016104fb906119a7565b6001600160a01b038216610c2e5760405162461bcd60e51b8152602060048201526024808201527f4552433732313a207472616e7366657220746f20746865207a65726f206164646044820152637265737360e01b60648201526084016104fb565b826001600160a01b0316610c41826105ed565b6001600160a01b031614610c675760405162461bcd60e51b81526004016104fb906119a7565b600081815260046020908152604080832080546001600160a01b03199081169091556001600160a01b0387811680865260038552838620805460001901905590871680865283862080546001019055868652600290945282852080549092168417909155905184937fddf252ad1be2c89b69c2b068fc378daa952ba7f163c4a11628f55a4df523b3ef91a4505050565b6007546001600160a01b031633146106e55760405162461bcd60e51b815260206004820181905260248201527f4f776e61626c653a2063616c6c6572206973206e6f7420746865206f776e657260448201526064016104fb565b600780546001600160a01b038381166001600160a01b0319831681179093556040519116919082907f8be0079c531659141344cd1fd0a4f28419497f9722a3daafe3b4186f6b6457e090600090a35050565b816001600160a01b0316836001600160a01b031603610e045760405162461bcd60e51b815260206004820152601960248201527f4552433732313a20617070726f766520746f2063616c6c65720000000000000060448201526064016104fb565b6001600160a01b03838116600081815260056020908152604080832094871680845294825291829020805460ff191686151590811790915591519182527f17307eab39ab6107e8899845ad3d59bd9653f200f220920489ca2b5937696c31910160405180910390a3505050565b61079b828260405180602001604052806000815250610ffd565b6000828152600260205260409020546001600160a01b0316610f065760405162461bcd60e51b815260206004820152602e60248201527f45524337323155524953746f726167653a2055524920736574206f66206e6f6e60448201526d32bc34b9ba32b73a103a37b5b2b760911b60648201526084016104fb565b6000828152600660205260409020610f1e828261185d565b506040518281527ff8e1a15aba9398e019f0b49df1a4fde98ee17ae345cb5f6b5e2c27f5033e8ce79060200160405180910390a15050565b610f61848484610b93565b610f6d84848484611030565b6108695760405162461bcd60e51b81526004016104fb906119ec565b6060610f9482610a48565b6000610fab60408051602081019091526000815290565b90506000815111610fcb5760405180602001604052806000815250610ff6565b80610fd584611131565b604051602001610fe6929190611978565b6040516020818303038152906040525b9392505050565b61100783836111c4565b6110146000848484611030565b61059c5760405162461bcd60e51b81526004016104fb906119ec565b60006001600160a01b0384163b1561112657604051630a85bd0160e11b81526001600160a01b0385169063150b7a0290611074903390899088908890600401611a3e565b6020604051808303816000875af19250505080156110af575060408051601f3d908101601f191682019092526110ac91810190611a71565b60015b61110c573d8080156110dd576040519150601f19603f3d011682016040523d82523d6000602084013e6110e2565b606091505b5080516000036111045760405162461bcd60e51b81526004016104fb906119ec565b805181602001fd5b6001600160e01b031916630a85bd0160e11b149050610977565b506001949350505050565b6060600061113e8361134f565b600101905060008167ffffffffffffffff81111561115e5761115e6115b0565b6040519080825280601f01601f191660200182016040528015611188576020820181803683370190505b5090508181016020015b600019016f181899199a1a9b1b9c1cb0b131b232b360811b600a86061a8153600a850494508461119257509392505050565b6001600160a01b03821661121a5760405162461bcd60e51b815260206004820181905260248201527f4552433732313a206d696e7420746f20746865207a65726f206164647265737360448201526064016104fb565b6000818152600260205260409020546001600160a01b03161561127f5760405162461bcd60e51b815260206004820152601c60248201527f4552433732313a20746f6b656e20616c7265616479206d696e7465640000000060448201526064016104fb565b6000818152600260205260409020546001600160a01b0316156112e45760405162461bcd60e51b815260206004820152601c60248201527f4552433732313a20746f6b656e20616c7265616479206d696e7465640000000060448201526064016104fb565b6001600160a01b038216600081815260036020908152604080832080546001019055848352600290915280822080546001600160a01b0319168417905551839291907fddf252ad1be2c89b69c2b068fc378daa952ba7f163c4a11628f55a4df523b3ef908290a45050565b60008072184f03e93ff9f4daa797ed6e38ed64bf6a1f0160401b831061138e5772184f03e93ff9f4daa797ed6e38ed64bf6a1f0160401b830492506040015b6d04ee2d6d415b85acef810000000083106113ba576d04ee2d6d415b85acef8100000000830492506020015b662386f26fc1000083106113d857662386f26fc10000830492506010015b6305f5e10083106113f0576305f5e100830492506008015b612710831061140457612710830492506004015b60648310611416576064830492506002015b600a83106103185760010192915050565b6001600160e01b0319811681146109f557600080fd5b60006020828403121561144f57600080fd5b8135610ff681611427565b60005b8381101561147557818101518382015260200161145d565b50506000910152565b6000815180845261149681602086016020860161145a565b601f01601f19169290920160200192915050565b602081526000610ff6602083018461147e565b6000602082840312156114cf57600080fd5b5035919050565b80356001600160a01b03811681146114ed57600080fd5b919050565b6000806040838503121561150557600080fd5b61150e836114d6565b946020939093013593505050565b60008060006060848603121561153157600080fd5b61153a846114d6565b9250611548602085016114d6565b929592945050506040919091013590565b60006020828403121561156b57600080fd5b610ff6826114d6565b6000806040838503121561158757600080fd5b611590836114d6565b9150602083013580151581146115a557600080fd5b809150509250929050565b634e487b7160e01b600052604160045260246000fd5b60008067ffffffffffffffff8411156115e1576115e16115b0565b50604051601f19601f85018116603f0116810181811067ffffffffffffffff82111715611610576116106115b0565b60405283815290508082840185101561162857600080fd5b83836020830137600060208583010152509392505050565b600082601f83011261165157600080fd5b610ff6838335602085016115c6565b60008060006060848603121561167557600080fd5b61167e846114d6565b9250602084013567ffffffffffffffff81111561169a57600080fd5b6116a686828701611640565b925050604084013567ffffffffffffffff8111156116c357600080fd5b6116cf86828701611640565b9150509250925092565b600080600080608085870312156116ef57600080fd5b6116f8856114d6565b9350611706602086016114d6565b925060408501359150606085013567ffffffffffffffff81111561172957600080fd5b8501601f8101871361173a57600080fd5b611749878235602084016115c6565b91505092959194509250565b6000806040838503121561176857600080fd5b611771836114d6565b915061177f602084016114d6565b90509250929050565b600181811c9082168061179c57607f821691505b6020821081036117bc57634e487b7160e01b600052602260045260246000fd5b50919050565b6020808252602d908201527f4552433732313a2063616c6c6572206973206e6f7420746f6b656e206f776e6560408201526c1c881bdc88185c1c1c9bdd9959609a1b606082015260800190565b601f82111561059c57806000526020600020601f840160051c810160208510156118365750805b601f840160051c820191505b818110156118565760008155600101611842565b5050505050565b815167ffffffffffffffff811115611877576118776115b0565b61188b816118858454611788565b8461180f565b6020601f8211600181146118bf57600083156118a75750848201515b600019600385901b1c1916600184901b178455611856565b600084815260208120601f198516915b828110156118ef57878501518255602094850194600190920191016118cf565b508482101561190d5786840151600019600387901b60f8161c191681555b50505050600190811b01905550565b838152606060208201526000611935606083018561147e565b8281036040840152611947818561147e565b9695505050505050565b60006001820161197157634e487b7160e01b600052601160045260246000fd5b5060010190565b6000835161198a81846020880161145a565b83519083019061199e81836020880161145a565b01949350505050565b60208082526025908201527f4552433732313a207472616e736665722066726f6d20696e636f72726563742060408201526437bbb732b960d91b606082015260800190565b60208082526032908201527f4552433732313a207472616e7366657220746f206e6f6e20455243373231526560408201527131b2b4bb32b91034b6b83632b6b2b73a32b960711b606082015260800190565b6001600160a01b03858116825284166020820152604081018390526080606082018190526000906119479083018461147e565b600060208284031215611a8357600080fd5b8151610ff68161142756fea2646970667358221220e36b6eeb87a0e2987706afe93134302279a2cca572324ebb4b4b1793d2e2803f64736f6c634300081e0033",
  "linkReferences": {},
  "deployedLinkReferences": {}
}